{
  "_format": "hh3-artifact-1",
  "contractName": "VotacionPropuesta",
  "sourceName": "contracts/VotacionPropuesta.sol",
  "abi": [
    {
      "inputs": [
        {
          "internalType": "string",
          "name": "_titulo",
          "type": "string"
        },
        {
          "internalType": "string",
          "name": "_descripcion",
          "type": "string"
        },
        {
          "internalType": "uint256",
          "name": "_monto",
          "type": "uint256"
        },
        {
          "internalType": "address",
          "name": "_destinatario",
          "type": "address"
        },
        {
          "internalType": "uint256",
          "name": "_inicioTiempo",
          "type": "uint256"
        },
        {
          "internalType": "uint256",
          "name": "_finTiempo",
          "type": "uint256"
        },
        {
          "internalType": "uint256",
          "name": "_quorum",
          "type": "uint256"
        },
        {
          "internalType": "uint256",
          "name": "_mayoriaRequerida",
          "type": "uint256"
        },
        {
          "internalType": "enum CooperadoraDAO.TipoPropuesta",
          "name": "_tipoPropuesta",
          "type": "uint8"
        },
        {
          "internalType": "address",
          "name": "_creador",
          "type": "address"
        },
        {
          "internalType": "address",
          "name": "_daoPadre",
          "type": "address"
        }
      ],
      "stateMutability": "nonpayable",
      "type": "constructor"
    },
    {
      "anonymous": false,
      "inputs": [
        {
          "indexed": false,
          "internalType": "string",
          "name": "mensaje",
          "type": "string"
        },
        {
          "indexed": false,
          "internalType": "uint256",
          "name": "valor",
          "type": "uint256"
        }
      ],
      "name": "Debug",
      "type": "event"
    },
    {
      "anonymous": false,
      "inputs": [],
      "name": "PropuestaEjecutada",
      "type": "event"
    },
    {
      "anonymous": false,
      "inputs": [
        {
          "indexed": true,
          "internalType": "address",
          "name": "votante",
          "type": "address"
        },
        {
          "indexed": false,
          "internalType": "bool",
          "name": "aFavor",
          "type": "bool"
        },
        {
          "indexed": false,
          "internalType": "uint256",
          "name": "tokens",
          "type": "uint256"
        }
      ],
      "name": "VotoEmitido",
      "type": "event"
    },
    {
      "inputs": [],
      "name": "creador",
      "outputs": [
        {
          "internalType": "address",
          "name": "",
          "type": "address"
        }
      ],
      "stateMutability": "view",
      "type": "function"
    },
    {
      "inputs": [],
      "name": "daoPadre",
      "outputs": [
        {
          "internalType": "address",
          "name": "",
          "type": "address"
        }
      ],
      "stateMutability": "view",
      "type": "function"
    },
    {
      "inputs": [],
      "name": "descripcion",
      "outputs": [
        {
          "internalType": "string",
          "name": "",
          "type": "string"
        }
      ],
      "stateMutability": "view",
      "type": "function"
    },
    {
      "inputs": [],
      "name": "destinatario",
      "outputs": [
        {
          "internalType": "address",
          "name": "",
          "type": "address"
        }
      ],
      "stateMutability": "view",
      "type": "function"
    },
    {
      "inputs": [],
      "name": "ejecutada",
      "outputs": [
        {
          "internalType": "bool",
          "name": "",
          "type": "bool"
        }
      ],
      "stateMutability": "view",
      "type": "function"
    },
    {
      "inputs": [],
      "name": "ejecutarConTransferencia",
      "outputs": [],
      "stateMutability": "nonpayable",
      "type": "function"
    },
    {
      "inputs": [],
      "name": "ejecutarPropuesta",
      "outputs": [],
      "stateMutability": "nonpayable",
      "type": "function"
    },
    {
      "inputs": [],
      "name": "finTiempo",
      "outputs": [
        {
          "internalType": "uint256",
          "name": "",
          "type": "uint256"
        }
      ],
      "stateMutability": "view",
      "type": "function"
    },
    {
      "inputs": [
        {
          "internalType": "address",
          "name": "_votante",
          "type": "address"
        }
      ],
      "name": "haVotado",
      "outputs": [
        {
          "internalType": "bool",
          "name": "",
          "type": "bool"
        }
      ],
      "stateMutability": "view",
      "type": "function"
    },
    {
      "inputs": [],
      "name": "inicioTiempo",
      "outputs": [
        {
          "internalType": "uint256",
          "name": "",
          "type": "uint256"
        }
      ],
      "stateMutability": "view",
      "type": "function"
    },
    {
      "inputs": [],
      "name": "mayoriaRequerida",
      "outputs": [
        {
          "internalType": "uint256",
          "name": "",
          "type": "uint256"
        }
      ],
      "stateMutability": "view",
      "type": "function"
    },
    {
      "inputs": [],
      "name": "monto",
      "outputs": [
        {
          "internalType": "uint256",
          "name": "",
          "type": "uint256"
        }
      ],
      "stateMutability": "view",
      "type": "function"
    },
    {
      "inputs": [],
      "name": "obtenerDetallesPropuesta",
      "outputs": [
        {
          "internalType": "string",
          "name": "_titulo",
          "type": "string"
        },
        {
          "internalType": "string",
          "name": "_descripcion",
          "type": "string"
        },
        {
          "internalType": "uint256",
          "name": "_monto",
          "type": "uint256"
        },
        {
          "internalType": "address",
          "name": "_destinatario",
          "type": "address"
        },
        {
          "internalType": "uint256",
          "name": "_inicioTiempo",
          "type": "uint256"
        },
        {
          "internalType": "uint256",
          "name": "_finTiempo",
          "type": "uint256"
        },
        {
          "internalType": "uint256",
          "name": "_votosAFavor",
          "type": "uint256"
        },
        {
          "internalType": "uint256",
          "name": "_votosEnContra",
          "type": "uint256"
        },
        {
          "internalType": "bool",
          "name": "_ejecutada",
          "type": "bool"
        },
        {
          "internalType": "address",
          "name": "_creador",
          "type": "address"
        }
      ],
      "stateMutability": "view",
      "type": "function"
    },
    {
      "inputs": [],
      "name": "obtenerEstadisticasVotacion",
      "outputs": [
        {
          "internalType": "uint256",
          "name": "_votosAFavor",
          "type": "uint256"
        },
        {
          "internalType": "uint256",
          "name": "_votosEnContra",
          "type": "uint256"
        },
        {
          "internalType": "uint256",
          "name": "_quorum",
          "type": "uint256"
        },
        {
          "internalType": "uint256",
          "name": "_mayoriaRequerida",
          "type": "uint256"
        },
        {
          "internalType": "bool",
          "name": "_haFinalizado",
          "type": "bool"
        },
        {
          "internalType": "bool",
          "name": "_quorumAlcanzado",
          "type": "bool"
        },
        {
          "internalType": "bool",
          "name": "_mayoriaAlcanzada",
          "type": "bool"
        }
      ],
      "stateMutability": "view",
      "type": "function"
    },
    {
      "inputs": [],
      "name": "obtenerEstadoVotacion",
      "outputs": [
        {
          "internalType": "uint256",
          "name": "tiempoActual",
          "type": "uint256"
        },
        {
          "internalType": "uint256",
          "name": "inicioVotacion",
          "type": "uint256"
        },
        {
          "internalType": "uint256",
          "name": "finVotacion",
          "type": "uint256"
        },
        {
          "internalType": "bool",
          "name": "estaActiva",
          "type": "bool"
        }
      ],
      "stateMutability": "view",
      "type": "function"
    },
    {
      "inputs": [],
      "name": "quorum",
      "outputs": [
        {
          "internalType": "uint256",
          "name": "",
          "type": "uint256"
        }
      ],
      "stateMutability": "view",
      "type": "function"
    },
    {
      "inputs": [],
      "name": "tipoPropuesta",
      "outputs": [
        {
          "internalType": "enum CooperadoraDAO.TipoPropuesta",
          "name": "",
          "type": "uint8"
        }
      ],
      "stateMutability": "view",
      "type": "function"
    },
    {
      "inputs": [],
      "name": "titulo",
      "outputs": [
        {
          "internalType": "string",
          "name": "",
          "type": "string"
        }
      ],
      "stateMutability": "view",
      "type": "function"
    },
    {
      "inputs": [
        {
          "internalType": "bool",
          "name": "aFavor",
          "type": "bool"
        },
        {
          "internalType": "uint256",
          "name": "poderVoto",
          "type": "uint256"
        }
      ],
      "name": "votar",
      "outputs": [],
      "stateMutability": "nonpayable",
      "type": "function"
    },
    {
      "inputs": [],
      "name": "votosAFavor",
      "outputs": [
        {
          "internalType": "uint256",
          "name": "",
          "type": "uint256"
        }
      ],
      "stateMutability": "view",
      "type": "function"
    },
    {
      "inputs": [],
      "name": "votosEnContra",
      "outputs": [
        {
          "internalType": "uint256",
          "name": "",
          "type": "uint256"
        }
      ],
      "stateMutability": "view",
      "type": "function"
    },
    {
      "inputs": [
        {
          "internalType": "address",
          "name": "",
          "type": "address"
        }
      ],
      "name": "yaVoto",
      "outputs": [
        {
          "internalType": "bool",
          "name": "",
          "type": "bool"
        }
      ],
      "stateMutability": "view",
      "type": "function"
    }
  ],
  "bytecode": "0x608060405234801561000f575f5ffd5b5060405161137038038061137083398101604081905261002e916102e9565b8587106100825760405162461bcd60e51b815260206004820152601c60248201527f506572696f646f20646520766f746163696f6e20696e76616c69646f0000000060448201526064015b60405180910390fd5b5f89116100d15760405162461bcd60e51b815260206004820152601b60248201527f4d6f6e746f206465626520736572206d61796f722061206365726f00000000006044820152606401610079565b6001600160a01b0388166101275760405162461bcd60e51b815260206004820152601560248201527f44657374696e61746172696f20696e76616c69646f00000000000000000000006044820152606401610079565b6001600160a01b0381166101725760405162461bcd60e51b815260206004820152601260248201527144414f20706164726520696e76616c69646f60701b6044820152606401610079565b600161017e8c82610459565b50600261018b8b82610459565b506003899055600480546001600160a01b0319166001600160a01b038a1617905560058790556006869055600785905560088490555f805484919060ff60a01b1916600160a01b8360028111156101e4576101e4610513565b0217905550600b80546001600160a01b039384166001600160a01b0319918216179091555f805492909316911617905550610527975050505050505050565b634e487b7160e01b5f52604160045260245ffd5b5f82601f830112610246575f5ffd5b81516001600160401b0381111561025f5761025f610223565b604051601f8201601f19908116603f011681016001600160401b038111828210171561028d5761028d610223565b6040528181528382016020018510156102a4575f5ffd5b8160208501602083015e5f918101602001919091529392505050565b80516001600160a01b03811681146102d6575f5ffd5b919050565b8051600381106102d6575f5ffd5b5f5f5f5f5f5f5f5f5f5f5f6101608c8e031215610304575f5ffd5b8b516001600160401b03811115610319575f5ffd5b6103258e828f01610237565b60208e0151909c5090506001600160401b03811115610342575f5ffd5b61034e8e828f01610237565b60408e0151909b509950610366905060608d016102c0565b97505f60808d01519050809750505f60a08d01519050809650505f60c08d01519050809550505f60e08d01519050809450506103a56101008d016102db565b92506103b46101208d016102c0565b91506103c36101408d016102c0565b90509295989b509295989b9093969950565b600181811c908216806103e957607f821691505b60208210810361040757634e487b7160e01b5f52602260045260245ffd5b50919050565b601f82111561045457805f5260205f20601f840160051c810160208510156104325750805b601f840160051c820191505b81811015610451575f815560010161043e565b50505b505050565b81516001600160401b0381111561047257610472610223565b6104868161048084546103d5565b8461040d565b6020601f8211600181146104b8575f83156104a15750848201515b5f19600385901b1c1916600184901b178455610451565b5f84815260208120601f198516915b828110156104e757878501518255602094850194600190920191016104c7565b508482101561050457868401515f19600387901b60f8161c191681555b50505050600190811b01905550565b634e487b7160e01b5f52602160045260245ffd5b610e3c806105345f395ff3fe608060405234801561000f575f5ffd5b506004361061013d575f3560e01c8063723a978d116100b4578063bbc2717311610079578063bbc27173146102d5578063e057b041146102de578063e2162a2c146102f1578063f0b0bb2814610304578063f1fe2ea014610326578063f7becb3c1461032f575f5ffd5b8063723a978d1461023657806381a0a4fa1461023f57806392ebdcd2146102825780639cd1291d146102ad578063b989ca64146102cd575f5ffd5b806350300ad01161010557806350300ad0146101df578063527530b3146102095780635eef6aea146102135780636401f67f1461021c5780636c83420b146102255780636f8cd4b01461022d575f5ffd5b80631703a0181461014157806318dbe09b1461015d578063355062cb1461017b578063375a92d8146101b6578063391b1ab0146101ca575b5f5ffd5b61014a60075481565b6040519081526020015b60405180910390f35b610165610341565b6040516101549a99989796959493929190610c4d565b6101a6610189366004610cc2565b6001600160a01b03165f908152600c602052604090205460ff1690565b6040519015158152602001610154565b600b546101a690600160a01b900460ff1681565b6101d26104cd565b6040516101549190610cef565b6101e7610559565b6040805194855260208501939093529183015215156060820152608001610154565b610211610586565b005b61014a60085481565b61014a60065481565b6101d26105cb565b61014a60095481565b61014a60055481565b6102476105d8565b60408051978852602088019690965294860193909352606085019190915215156080840152151560a0830152151560c082015260e001610154565b600b54610295906001600160a01b031681565b6040516001600160a01b039091168152602001610154565b5f546102c090600160a01b900460ff1681565b6040516101549190610d01565b61021161064b565b61014a600a5481565b600454610295906001600160a01b031681565b6102116102ff366004610d27565b610784565b6101a6610312366004610cc2565b600c6020525f908152604090205460ff1681565b61014a60035481565b5f54610295906001600160a01b031681565b6060805f5f5f5f5f5f5f5f6001600260035460045f9054906101000a90046001600160a01b0316600554600654600954600a54600b60149054906101000a900460ff16600b5f9054906101000a90046001600160a01b03168980546103a590610d55565b80601f01602080910402602001604051908101604052809291908181526020018280546103d190610d55565b801561041c5780601f106103f35761010080835404028352916020019161041c565b820191905f5260205f20905b8154815290600101906020018083116103ff57829003601f168201915b5050505050995088805461042f90610d55565b80601f016020809104026020016040519081016040528092919081815260200182805461045b90610d55565b80156104a65780601f1061047d576101008083540402835291602001916104a6565b820191905f5260205f20905b81548152906001019060200180831161048957829003601f168201915b50505050509850995099509950995099509950995099509950995090919293949596979899565b600180546104da90610d55565b80601f016020809104026020016040519081016040528092919081815260200182805461050690610d55565b80156105515780601f1061052857610100808354040283529160200191610551565b820191905f5260205f20905b81548152906001019060200180831161053457829003601f168201915b505050505081565b5f5f5f5f42600554600654600554421015801561057857506006544211155b935093509350935090919293565b61058e610abe565b600b805460ff60a01b1916600160a01b1790556040517f8646ae67c998be468aac78b36c84559a5425deb25e45daa5a67ae9a61d39b826905f90a1565b600280546104da90610d55565b5f5f5f5f5f5f5f5f600a546009546105f09190610da1565b90505f5f8211610600575f61061a565b8160095460646106109190610dba565b61061a9190610dd1565b600954600a54600754600854600654939e929d50909b50995042919091119750928911159550871115935090915050565b610653610abe565b5f80546004546003546040516001600160a01b039283166024820152604481019190915291169060640160408051601f198184030181529181526020820180516001600160e01b0316630354982960e21b179052516106b29190610df0565b5f604051808303815f865af19150503d805f81146106eb576040519150601f19603f3d011682016040523d82523d5f602084013e6106f0565b606091505b50509050806107465760405162461bcd60e51b815260206004820152601f60248201527f5472616e73666572656e63696120646520666f6e646f732066616c6c6964610060448201526064015b60405180910390fd5b600b805460ff60a01b1916600160a01b1790556040517f8646ae67c998be468aac78b36c84559a5425deb25e45daa5a67ae9a61d39b826905f90a150565b60408051818152600d818301526c151a595b5c1bc81858dd1d585b609a1b606082015242602082015290517f3c5ad147104e56be34a9176a6692f7df8d2f4b29a5af06bc6b98970d329d65779181900360800190a17f3c5ad147104e56be34a9176a6692f7df8d2f4b29a5af06bc6b98970d329d657760055460405161083691906040808252600f908201526e24b734b1b4b7903b37ba30b1b4b7b760891b6060820152602081019190915260800190565b60405180910390a17f3c5ad147104e56be34a9176a6692f7df8d2f4b29a5af06bc6b98970d329d657760065460405161089891906040808252600c908201526b2334b7103b37ba30b1b4b7b760a11b6060820152602081019190915260800190565b60405180910390a1600654600554106108f35760405162461bcd60e51b815260206004820152601c60248201527f506572696f646f20646520766f746163696f6e20696e76616c69646f00000000604482015260640161073d565b60055442101561093c5760405162461bcd60e51b8152602060048201526014602482015273566f746163696f6e206e6f20696e69636961646160601b604482015260640161073d565b6006544211156109845760405162461bcd60e51b8152602060048201526013602482015272566f746163696f6e2066696e616c697a61646160681b604482015260640161073d565b335f908152600c602052604090205460ff16156109cd5760405162461bcd60e51b8152602060048201526007602482015266596120766f746f60c81b604482015260640161073d565b5f8111610a2b5760405162461bcd60e51b815260206004820152602660248201527f456c20706f64657220646520766f746f206465626520736572206d61796f722060448201526561206365726f60d01b606482015260840161073d565b335f908152600c60205260409020805460ff191660011790558115610a66578060095f828254610a5b9190610da1565b90915550610a7d9050565b80600a5f828254610a779190610da1565b90915550505b6040805183151581526020810183905233917f74f85d489225c41d63a4005fb71e7ab4b37b444f86d8ec4d6795aafbe54d09fb910160405180910390a25050565b6006544211610b075760405162461bcd60e51b8152602060048201526015602482015274566f746163696f6e2061756e20656e20637572736f60581b604482015260640161073d565b600b54600160a01b900460ff1615610b5a5760405162461bcd60e51b815260206004820152601660248201527550726f70756573746120796120656a6563757461646160501b604482015260640161073d565b5f600a54600954610b6b9190610da1565b9050600754811015610bb55760405162461bcd60e51b815260206004820152601360248201527251756f72756d206e6f20616c63616e7a61646f60681b604482015260640161073d565b5f816009546064610bc69190610dba565b610bd09190610dd1565b9050600854811015610c1b5760405162461bcd60e51b81526020600482015260146024820152734d61796f726961206e6f20616c63616e7a61646160601b604482015260640161073d565b5050565b5f81518084528060208401602086015e5f602082860101526020601f19601f83011685010191505092915050565b61014081525f610c6161014083018d610c1f565b8281036020840152610c73818d610c1f565b604084019b909b5250506001600160a01b039788166060820152608081019690965260a086019490945260c085019290925260e084015215156101008301529091166101209091015292915050565b5f60208284031215610cd2575f5ffd5b81356001600160a01b0381168114610ce8575f5ffd5b9392505050565b602081525f610ce86020830184610c1f565b6020810160038310610d2157634e487b7160e01b5f52602160045260245ffd5b91905290565b5f5f60408385031215610d38575f5ffd5b82358015158114610d47575f5ffd5b946020939093013593505050565b600181811c90821680610d6957607f821691505b602082108103610d8757634e487b7160e01b5f52602260045260245ffd5b50919050565b634e487b7160e01b5f52601160045260245ffd5b80820180821115610db457610db4610d8d565b92915050565b8082028115828204841417610db457610db4610d8d565b5f82610deb57634e487b7160e01b5f52601260045260245ffd5b500490565b5f82518060208501845e5f92019182525091905056fea26469706673582212201e31f1f8a5bde6cf45139a5951a3760a3134ca189a8d8904466b32c19363c86864736f6c634300081c0033",
  "linkReferences": {},
  "deployedLinkReferences": {},
  "immutableReferences": {},
  "inputSourceName": "project/contracts/VotacionPropuesta.sol",
  "buildInfoId": "solc-0_8_28-ff257d6fd78760769779fa45d5b0b08148bdaedb"
}